S01800004772696453656E73696E675F313238342E7372656381
S11300004CC0000067C0000065C0000063C0000071
S113001061C000005FC000005DC000005BC0000064
S113002059C0000057C0000055C0000053C0000074
S113003051C000004FC000004DC000004BC0000084
S113004049C0000047C0000045C0000043C0000094
S113005041C000003FC000003DC000003BC00000A4
S113006039C0000037C0000035C0000033C00000B4
S113007031C000002FC000002DC000002BC00000C4
S113008029C0000027C0000025C0000061036403EC
S113009067036A036D037003730311241FBECFEF5C
S11300A0D0E4DEBFCDBF11E0A0E0B1E0EAE0FEE0C5
S11300B000E00BBF02C007900D92A636B107D9F736
S11300C021E0A6E6B1E001C01D92A237B207E1F734
S11300D0B1D399C695CF94B121E030E002C0220F8C
S11300E0331F8A95E2F72095292324B9089594B102
S11300F021E030E002C0220F331F8A95E2F7292B5A
S113010024B9089595B121E030E002C0220F331FD5
S11301108A95E2F72095292325B9089580916701EE
S1130120F1DF80916701E3DF8FEB93E00197F1F753
S113013000C0000080916701CEDF95ED9A95F1F73C
S1130140000023B181E090E00090670102C0880FB5
S1130150991F0A94E2F78223EFE1F3E03197F1F774
S113016000C000000895CF93C82F80916701CADFB3
S113017080916701BCDF85E08A95F1F70000CC230C
S113018019F080916701A7DF8DEA8A95F1F70000E5
S113019080916701A0DFCF91089580916701B2DF5C
S11301A080916701A4DF82E08A95F1F700C0809115
S11301B0670191DF95E29A95F1F7000083B190E031
S11301C00090670102C0959587950A94E2F78170C3
S11301D095E89A95F1F700000895CF93DF93D8E05E
S11301E0C0E0DBDF20E8829FC0011124C695C82B44
S11301F0D150B9F78C2FDF91CF910895CF93DF932E
S1130200D82FC8E08D2F8170AEDFD695C150D1F7BD
S1130210DF91CF910895DF92EF92FF920F931F9396
S1130220CF93DF93CDB7DEB729970FB6F894DEBF2F
S11302300FBECDBF7B018093670170DF811168C061
S11302408CECDCDF84E4DADF2FE78FE492E12150E9
S113025080409040E1F700C0000004E110E004C0D9
S11302600150110909F457C098DF8823C9F356DFF8
S1130270811154C08CECC2DF8EEBC0DFAEDF082FDF
S11302808983ABDF182F8A83A8DF8B83A6DF8C8357
S1130290A4DF8D83A2DF8E83A0DF8F839EDF888718
S11302A09CDFD82E89873ADFFE013196AE01475F85
S11302B05F4F20E09191292798E03CE8269508F4C7
S11302C023279A95D9F7E417F507A1F7D21229C085
S11302D0EFEFDE1649F1612F70E0762F6627600F8D
S11302E0711D072E000C880B990B55D420E030E0CB
S11302F040E85DE3F4D420E030E040E251E4EFD4A0
S113030004D416D4F7017183608380E090E00EC0BA
S11303108FEF9FEF0BC08FEF9FEF08C08FEF9FEF22
S113032005C08FEF9FEF02C08FEF9FEF29960FB6A6
S1130330F894DEBF0FBECDBFDF91CF911F910F9117
S1130340FF90EF90DF9008956F927F928F929F922B
S1130350AF92BF92CF92DF92EF92FF920F931F93CF
S1130360CF93DF9300D000D01F92CDB7DEB7FE014C
S1130370319625E0DF011D922A95E9F7E1B121E0EC
S113038030E0A9010090660102C0440F551F0A9491
S1130390E2F74E2B41B9E2B1A9010090660102C017
S11303A0440F551F0A94E2F74E2B42B9BFEFE0E722
S11303B0F2E0B150E040F040E1F700C0000052B17B
S11303C0F9010090660102C0EE0FFF1F0A94E2F7E4
S11303D04E2F4095452342B9A7EEB3E01197F1F7AC
S11303E000C00000E2B1A9010090660102C0440F00
S11303F0551F0A94E2F74E2B42B941B100906601B1
S113040002C0220F331F0A94E2F72095242321B956
S1130410BAE6BA95F1F700C020B130E00090660169
S113042002C0359527950A94E2F720FDB4C0E5EDA6
S1130430EA95F1F7000020B130E00090660102C0B7
S1130440359527950A94E2F720FFA7C0F5EDFA95B4
S1130450F1F70000DE0111964E0126E0820E911C98
S11304600F2EF7E0AF2EF02D712C612CE1E0F0E0BF
S11304700F2EF9ECCF2EF02DD12C45C001501109CF
S113048059F48DC07F010090660102C0EE0CFF1C80
S11304900A94E2F70C2D1D2D20B130E02E213F21CE
S11304A0232B61F330E53A95F1F720B11091660101
S11304B030E0012E02C0359527950A94E2F720FF1B
S11304C008C09F01042E02C0220F331F0A94E2F7D2
S11304D0B22A7F0102C0EE0CFF1C1A95E2F70C2D24
S11304E01D2D04C00150110909F45BC020B130E096
S11304F02E213F21232BB1F74150510918F6BD920B
S1130500A815B90521F04A2D572DB62CBBCFE1B162
S113051021E030E0A9010090660102C0440F551F9C
S11305200A94E2F74E2B41B942B10090660102C031
S1130530220F331F0A94E2F7242B22B93FEF40E73E
S113054052E0315040405040E1F700C00000F981D2
S11305504A81EB812C81342F3F0F3E0F320F5D8196
S1130560351321C050E05F2BDB014D935C93EE23E8
S11305705CF4EF7730E03E2B319521953109FC0195
S11305803183208380E010C030E03E2BDC012D93CA
S11305903C9380E009C08FEF07C08FEF05C08FEF59
S11305A003C08FEF01C08FEF0F900F900F900F904B
S11305B00F90DF91CF911F910F91FF90EF90DF90FB
S11305C0CF90BF90AF909F908F907F906F90089541
S11305D040936601B9CE089580E28093B8000895EF
S11305E0ECEBF0E0108294EA908390819923ECF78D
S11305F09091B900987F9830A1F48093BB0084E86F
S11306008093BC00ECEBF0E080818823ECF79091C0
S1130610B900987F983139F081E0903429F480E072
S1130620089581E0089580E008958093BB0084E8F4
S11306308093BC00ECEBF0E080818823ECF7909190
S1130640B900987F81E0983209F480E0089584EC41
S11306508093BC00ECEBF0E080818823ECF7809180
S1130660BB00089584E88093BC00ECEBF0E080814B
S11306708823ECF78091BB00089584E98093BC0043
S11306800895CF9380E3ACDF80EFCFDF81E3A8DF71
S1130690E9DFC82FF2DFC77F81E0C03109F080E0D5
S11306A0CF910895CF93DF93EC0180E399DF83EC3E
S11306B0BCDFFE013197E730F105C0F4EA5BFF4F80
S11306C099C3D1EB81EE14C0DAEA82ED11C0D3EA0A
S11306D083EC0EC0DCE984EB0BC0D5E985EA08C0E5
S11306E0DEE886E905C0D7E887E802C0D8EB80EFEA
S11306F09CDF81E375DFB6DFC82FBFDF81E0DC1349
S113070080E0DF91CF910895CF93DF93C82F80E3EA
S113071067DF82ED8ADF2C2F30E020953095C90108
S113072082959295907F9827807F98278C2B7DDFE8
S113073081E356DF97DFD82FA0DF81E0CD1380E07F
S1130740DF91CF9108951F93CF93DF9380E348DF28
S113075084EB6BDF81E344DF7ADFC0E0D0E077DF56
S113076080FF05C02196C531D105C9F70CC07ADFD9
S1130770182F83DF64971CF084DF80E007C011FB2F
S1130780882780F903C06EDF78DFF6CFDF91CF9141
S11307901F910895CF93DF93C82F80E321DF85EA6B
S11307A044DF8C2F42DF81E31BDF51DFC0E0D0E068
S11307B04EDF80FF05C02196C131D105C9F709C0BC
S11307C051DF5BDF60971CF05CDF80E005C081E0F7
S11307D003C048DF52DFF8CFDF91CF910895CF9364
S11307E0DF9380E3FDDE86E920DF81E3F9DE2FDF9E
S11307F0C0E0D0E02CDF80FF05C02196C131D105D7
S1130800C9F713C02FDF60971CF03BDF80E00FC0F7
S113081080E3E6DE81EE09DF81EE07DF81E3E0DEDF
S113082021DFC82F2ADF8C2F02C01CDFEECFDF911F
S1130830CF910895CF93DF93CDB7DEB765970FB609
S1130840F894DEBF0FBECDBF11B814B88AE08AB9E0
S113085018B81BB815B81DD132D1BEDE78942FEF6D
S113086083ED90E3215080409040E1F700C0000008
S11308701A8219821C821B821E821D8218861F8284
S11308801A8619861C861B86FCDE811103C080E053
S113089091E02DD181E038DF811103C086E191E040
S11308A026D183E090E0FEDE811103C088E291E06E
S11308B01ED1812C912C0F2EF4E1AF2EF02D0F2E92
S11308C0FAE07F2EF02D7E0125E1E20EF11C41E0DD
S11308D0BE01675F7F4FCE0101967ADE40E0BE0124
S11308E0655F7F4FCE01039673DE1A2DBE016B5FE9
S11308F07F4F81E090DC019621F41150B9F71A2D55
S113090001C01A2DBE01695F7F4F80E084DC01962F
S113091011F41150B9F71A9902C0B12C01C0B72CC7
S11309201B9902C0C12C01C0C72C059B06C0069BA5
S113093006C0079B06C0672C05C0612C03C0612C50
S113094001C0612C00DF811103C080E491E0CFD0AD
S11309508CEC20DF811103C083E591E0C8D084E4EE
S113096019DF811103C083E591E0C1D08FEF99E6CF
S113097028E1815090402040E1F700C00000E3DE10
S1130980811103C080E491E0B2D08CEC03DF8111CB
S113099003C083E591E0ABD08EEBFCDE811103C094
S11309A083E591E0A4D01BDFD82E8D8718DF182FA4
S11309B08E8715DF8F8713DF888B11DF898B0FDF1D
S11309C08A8B0DDF8B8B0BDF8C8B09DF082F8D8BD4
S11309D0BADEFE013D9620E09191292798E08CE84B
S11309E0269508F428279A95D9F7EE15FF05A1F75F
S11309F020131BC02F3FC9F0612F70E0762F6627AC
S1130A006D0D711D072E000C880B990BC4D020E0CE
S1130A1030E040E85DE363D120E030E040E251E4BF
S1130A205ED173D08AD0862E972E8FEF40D08EEF72
S1130A303ED08DEF3CD089813AD08A8138D08985E7
S1130A4036D08A8534D08B8132D08C8130D08B855E
S1130A502ED08C852CD0882D2AD0892D28D08F811A
S1130A6026D0888524D08B2D22D080E020D0862DDE
S1130A701ED080E01CD08C2D1AD080E018D08FEFCF
S1130A8099E628E1815090402040E1F700C0000041
S1130A901ECF1092C50083E38093C4001092C0005F
S1130AA086E88093C20088E18093C1000895E0EC59
S1130AB0F0E0908195FFFDCF8093C60008951092D9
S1130AC0CD0083E38093CC001092C800E9ECF0E001
S1130AD0108286E88093CA0088E180830895E8EC58
S1130AE0F0E0908195FFFDCF8093CE000895CF93E1
S1130AF0DF93EC018881882329F02196F0DF899126
S1130B008111FCCFDF91CF910895CBD080F09F3736
S1130B1040F491110EF4DDC060E070E080E89FE3E2
S1130B20089526F01B16611D711D811D6FC089C0BB
S1130B3004D06894B111CDC0089599D088F09F571E
S1130B4090F0B92F9927B751A0F0D1F0660F771F15
S1130B50881F991F1AF0BA95C9F712C0B13081F0F5
S1130B60B7D0B1E00895B4C0672F782F8827B85F55
S1130B7039F0B93FCCF3869577956795B395D9F756
S1130B803EF490958095709561957F4F8F4F9F4F60
S1130B900895E89409C097FB3EF49095809570956C
S1130BA061957F4F8F4F9F4F9923A9F0F92F96E9B5
S1130BB0BB279395F695879577956795B795F1112A
S1130BC0F8CFFAF4BB0F11F460FF1BC06F5F7F4FC7
S1130BD08F4F9F4F16C0882311F096E911C07723D9
S1130BE021F09EE8872F762F05C0662371F096E8E2
S1130BF0862F70E060E02AF09A95660F771F881FB1
S1130C00DAF7880F9695879597F90895882371F4F4
S1130C10772321F09850872B762F07C0662311F491
S1130C2099270DC09051862B70E060E02AF09A95C8
S1130C30660F771F881FDAF7880F9695879597F9BF
S1130C4008959F3F31F0915020F4879577956795EB
S1130C50B795880F911D9695879597F9089557FD37
S1130C609058440F551F59F05F3F71F04795880F16
S1130C7097FB991F61F09F3F79F0879508951216AD
S1130C8013061406551FF2CF4695F1DF08C0161659
S1130C9017061806991FF1CF86957105610508940A
S1130CA00895E5DFA0F0BEE7B91788F4BB279F38A5
S1130CB060F41616B11D672F782F8827985FF7CF39
S1130CC0869577956795B11D93959639C8F30895E0
S1130CD0E894BB2766277727CB0197F908950BD0B3
S1130CE078C069D028F06ED018F0952309F05AC066
S1130CF05FC01124EECFB3DFA0F3959FD1F3950F1E
S1130D0050E0551F629FF001729FBB27F00DB11D8B
S1130D10639FAA27F00DB11DAA1F649F6627B00D1B
S1130D20A11D661F829F2227B00DA11D621F739F04
S1130D30B00DA11D621F839FA00D611D221F749F12
S1130D403327A00D611D231F849F600D211D822F59
S1130D50762F6A2F11249F5750408AF0E1F08823A0
S1130D604AF0EE0FFF1FBB1F661F771F881F9150AD
S1130D705040A9F79E3F510570F014C0AACF5F3FC1
S1130D80ECF3983EDCF3869577956795B795F795E0
S1130D90E7959F5FC1F7FE2B880F911D9695879568
S1130DA097F9089597F99F6780E870E060E00895E7
S1130DB09FEF80EC089500240A941616170618066F
S1130DC00906089500240A9412161306140605064B
S1130DD00895092E0394000C11F4882352F0BB0FDC
S1130DE040F4BF2B11F460FF04C06F5F7F4F8F4F3F
S1130DF09F4F0895EE0FFF1F0024001C0BBE0790A9
S10D0E00F691E02D0994F894FFCF59
S1130E0A4572726F7220696E206465766963652023
S1130E1A7265736574004572726F7220636F6E66D1
S1130E2A69677572696E67004572726F72207365BD
S1130E3A6C656374696E67206368616E6E656C00C5
S1130E4A4572726F7220312D7769726520726573EB
S1130E5A6574004572726F7220312D77697265204C
S1090E6A77726974650053
S9030000FC
